{
  "_format": "hh-sol-artifact-1",
  "contractName": "NFTMarketplace",
  "sourceName": "contracts/Marketplace.sol",
  "abi": [
    {
      "inputs": [
        {
          "internalType": "address",
          "name": "_tokenAddress",
          "type": "address"
        }
      ],
      "stateMutability": "nonpayable",
      "type": "constructor"
    },
    {
      "anonymous": false,
      "inputs": [
        {
          "indexed": true,
          "internalType": "address",
          "name": "owner",
          "type": "address"
        },
        {
          "indexed": true,
          "internalType": "address",
          "name": "approved",
          "type": "address"
        },
        {
          "indexed": true,
          "internalType": "uint256",
          "name": "tokenId",
          "type": "uint256"
        }
      ],
      "name": "Approval",
      "type": "event"
    },
    {
      "anonymous": false,
      "inputs": [
        {
          "indexed": true,
          "internalType": "address",
          "name": "owner",
          "type": "address"
        },
        {
          "indexed": true,
          "internalType": "address",
          "name": "operator",
          "type": "address"
        },
        {
          "indexed": false,
          "internalType": "bool",
          "name": "approved",
          "type": "bool"
        }
      ],
      "name": "ApprovalForAll",
      "type": "event"
    },
    {
      "anonymous": false,
      "inputs": [
        {
          "indexed": true,
          "internalType": "uint256",
          "name": "tokenId",
          "type": "uint256"
        },
        {
          "indexed": false,
          "internalType": "address",
          "name": "seller",
          "type": "address"
        },
        {
          "indexed": false,
          "internalType": "address",
          "name": "owner",
          "type": "address"
        },
        {
          "indexed": false,
          "internalType": "uint256",
          "name": "price",
          "type": "uint256"
        },
        {
          "indexed": false,
          "internalType": "uint256",
          "name": "from",
          "type": "uint256"
        },
        {
          "indexed": false,
          "internalType": "uint256",
          "name": "to",
          "type": "uint256"
        },
        {
          "indexed": false,
          "internalType": "bool",
          "name": "sold",
          "type": "bool"
        }
      ],
      "name": "MarketItemCreated",
      "type": "event"
    },
    {
      "anonymous": false,
      "inputs": [
        {
          "indexed": false,
          "internalType": "uint256",
          "name": "tokenId",
          "type": "uint256"
        },
        {
          "indexed": false,
          "internalType": "address payable",
          "name": "seller",
          "type": "address"
        },
        {
          "indexed": false,
          "internalType": "address payable",
          "name": "buyer",
          "type": "address"
        },
        {
          "indexed": false,
          "internalType": "uint256",
          "name": "price",
          "type": "uint256"
        },
        {
          "indexed": false,
          "internalType": "uint256",
          "name": "expire",
          "type": "uint256"
        }
      ],
      "name": "Offfered",
      "type": "event"
    },
    {
      "anonymous": false,
      "inputs": [
        {
          "indexed": true,
          "internalType": "address",
          "name": "from",
          "type": "address"
        },
        {
          "indexed": true,
          "internalType": "address",
          "name": "to",
          "type": "address"
        },
        {
          "indexed": true,
          "internalType": "uint256",
          "name": "tokenId",
          "type": "uint256"
        }
      ],
      "name": "Transfer",
      "type": "event"
    },
    {
      "inputs": [
        {
          "internalType": "address",
          "name": "to",
          "type": "address"
        },
        {
          "internalType": "uint256",
          "name": "tokenId",
          "type": "uint256"
        }
      ],
      "name": "approve",
      "outputs": [],
      "stateMutability": "nonpayable",
      "type": "function"
    },
    {
      "inputs": [
        {
          "internalType": "uint256",
          "name": "tokenId",
          "type": "uint256"
        },
        {
          "internalType": "address",
          "name": "buyer",
          "type": "address"
        }
      ],
      "name": "approveOffer",
      "outputs": [],
      "stateMutability": "nonpayable",
      "type": "function"
    },
    {
      "inputs": [
        {
          "internalType": "address",
          "name": "owner",
          "type": "address"
        }
      ],
      "name": "balanceOf",
      "outputs": [
        {
          "internalType": "uint256",
          "name": "",
          "type": "uint256"
        }
      ],
      "stateMutability": "view",
      "type": "function"
    },
    {
      "inputs": [
        {
          "internalType": "uint256",
          "name": "tokenId",
          "type": "uint256"
        }
      ],
      "name": "cancelMyOffer",
      "outputs": [],
      "stateMutability": "nonpayable",
      "type": "function"
    },
    {
      "inputs": [
        {
          "internalType": "uint256",
          "name": "tokenId",
          "type": "uint256"
        },
        {
          "internalType": "address",
          "name": "buyer",
          "type": "address"
        }
      ],
      "name": "cancelOffer",
      "outputs": [],
      "stateMutability": "nonpayable",
      "type": "function"
    },
    {
      "inputs": [
        {
          "internalType": "string",
          "name": "tokenURI",
          "type": "string"
        }
      ],
      "name": "createItem",
      "outputs": [
        {
          "internalType": "uint256",
          "name": "",
          "type": "uint256"
        }
      ],
      "stateMutability": "nonpayable",
      "type": "function"
    },
    {
      "inputs": [
        {
          "internalType": "uint256",
          "name": "tokenId",
          "type": "uint256"
        },
        {
          "internalType": "uint256",
          "name": "price",
          "type": "uint256"
        },
        {
          "internalType": "uint256",
          "name": "from",
          "type": "uint256"
        },
        {
          "internalType": "uint256",
          "name": "to",
          "type": "uint256"
        },
        {
          "internalType": "address",
          "name": "reserveAddress",
          "type": "address"
        }
      ],
      "name": "createMarketItem",
      "outputs": [],
      "stateMutability": "nonpayable",
      "type": "function"
    },
    {
      "inputs": [
        {
          "internalType": "uint256",
          "name": "tokenId",
          "type": "uint256"
        },
        {
          "internalType": "uint256",
          "name": "amount",
          "type": "uint256"
        }
      ],
      "name": "createMarketSale",
      "outputs": [],
      "stateMutability": "nonpayable",
      "type": "function"
    },
    {
      "inputs": [
        {
          "internalType": "uint256",
          "name": "tokenId",
          "type": "uint256"
        }
      ],
      "name": "fetchMarketItem",
      "outputs": [
        {
          "components": [
            {
              "internalType": "uint256",
              "name": "tokenId",
              "type": "uint256"
            },
            {
              "internalType": "address payable",
              "name": "seller",
              "type": "address"
            },
            {
              "internalType": "address payable",
              "name": "owner",
              "type": "address"
            },
            {
              "internalType": "uint256",
              "name": "price",
              "type": "uint256"
            },
            {
              "internalType": "uint256",
              "name": "from",
              "type": "uint256"
            },
            {
              "internalType": "uint256",
              "name": "to",
              "type": "uint256"
            },
            {
              "internalType": "address",
              "name": "reserveAddress",
              "type": "address"
            },
            {
              "internalType": "bool",
              "name": "sold",
              "type": "bool"
            }
          ],
          "internalType": "struct NFTMarketplace.MarketItem",
          "name": "",
          "type": "tuple"
        }
      ],
      "stateMutability": "view",
      "type": "function"
    },
    {
      "inputs": [],
      "name": "fetchMarketItems",
      "outputs": [
        {
          "components": [
            {
              "internalType": "uint256",
              "name": "tokenId",
              "type": "uint256"
            },
            {
              "internalType": "address payable",
              "name": "seller",
              "type": "address"
            },
            {
              "internalType": "address payable",
              "name": "owner",
              "type": "address"
            },
            {
              "internalType": "uint256",
              "name": "price",
              "type": "uint256"
            },
            {
              "internalType": "uint256",
              "name": "from",
              "type": "uint256"
            },
            {
              "internalType": "uint256",
              "name": "to",
              "type": "uint256"
            },
            {
              "internalType": "address",
              "name": "reserveAddress",
              "type": "address"
            },
            {
              "internalType": "bool",
              "name": "sold",
              "type": "bool"
            }
          ],
          "internalType": "struct NFTMarketplace.MarketItem[]",
          "name": "",
          "type": "tuple[]"
        }
      ],
      "stateMutability": "view",
      "type": "function"
    },
    {
      "inputs": [],
      "name": "fetchMyMarketItems",
      "outputs": [
        {
          "components": [
            {
              "internalType": "uint256",
              "name": "tokenId",
              "type": "uint256"
            },
            {
              "internalType": "address payable",
              "name": "seller",
              "type": "address"
            },
            {
              "internalType": "address payable",
              "name": "owner",
              "type": "address"
            },
            {
              "internalType": "uint256",
              "name": "price",
              "type": "uint256"
            },
            {
              "internalType": "uint256",
              "name": "from",
              "type": "uint256"
            },
            {
              "internalType": "uint256",
              "name": "to",
              "type": "uint256"
            },
            {
              "internalType": "address",
              "name": "reserveAddress",
              "type": "address"
            },
            {
              "internalType": "bool",
              "name": "sold",
              "type": "bool"
            }
          ],
          "internalType": "struct NFTMarketplace.MarketItem[]",
          "name": "",
          "type": "tuple[]"
        }
      ],
      "stateMutability": "view",
      "type": "function"
    },
    {
      "inputs": [
        {
          "internalType": "uint256",
          "name": "tokenId",
          "type": "uint256"
        }
      ],
      "name": "getApproved",
      "outputs": [
        {
          "internalType": "address",
          "name": "",
          "type": "address"
        }
      ],
      "stateMutability": "view",
      "type": "function"
    },
    {
      "inputs": [
        {
          "internalType": "uint256",
          "name": "tokenId",
          "type": "uint256"
        }
      ],
      "name": "getOffersByTokenId",
      "outputs": [
        {
          "components": [
            {
              "internalType": "uint256",
              "name": "tokenId",
              "type": "uint256"
            },
            {
              "internalType": "address payable",
              "name": "buyer",
              "type": "address"
            },
            {
              "internalType": "uint256",
              "name": "price",
              "type": "uint256"
            },
            {
              "internalType": "uint256",
              "name": "expire",
              "type": "uint256"
            }
          ],
          "internalType": "struct NFTMarketplace.MarketOffer[]",
          "name": "",
          "type": "tuple[]"
        }
      ],
      "stateMutability": "view",
      "type": "function"
    },
    {
      "inputs": [
        {
          "internalType": "uint256",
          "name": "",
          "type": "uint256"
        },
        {
          "internalType": "uint256",
          "name": "",
          "type": "uint256"
        }
      ],
      "name": "idToMarketOffers",
      "outputs": [
        {
          "internalType": "uint256",
          "name": "tokenId",
          "type": "uint256"
        },
        {
          "internalType": "address payable",
          "name": "buyer",
          "type": "address"
        },
        {
          "internalType": "uint256",
          "name": "price",
          "type": "uint256"
        },
        {
          "internalType": "uint256",
          "name": "expire",
          "type": "uint256"
        }
      ],
      "stateMutability": "view",
      "type": "function"
    },
    {
      "inputs": [
        {
          "internalType": "address",
          "name": "owner",
          "type": "address"
        },
        {
          "internalType": "address",
          "name": "operator",
          "type": "address"
        }
      ],
      "name": "isApprovedForAll",
      "outputs": [
        {
          "internalType": "bool",
          "name": "",
          "type": "bool"
        }
      ],
      "stateMutability": "view",
      "type": "function"
    },
    {
      "inputs": [
        {
          "internalType": "uint256",
          "name": "tokenId",
          "type": "uint256"
        },
        {
          "internalType": "uint256",
          "name": "price",
          "type": "uint256"
        },
        {
          "internalType": "uint256",
          "name": "expiration",
          "type": "uint256"
        }
      ],
      "name": "makeOffer",
      "outputs": [],
      "stateMutability": "nonpayable",
      "type": "function"
    },
    {
      "inputs": [],
      "name": "name",
      "outputs": [
        {
          "internalType": "string",
          "name": "",
          "type": "string"
        }
      ],
      "stateMutability": "view",
      "type": "function"
    },
    {
      "inputs": [
        {
          "internalType": "uint256",
          "name": "tokenId",
          "type": "uint256"
        }
      ],
      "name": "ownerOf",
      "outputs": [
        {
          "internalType": "address",
          "name": "",
          "type": "address"
        }
      ],
      "stateMutability": "view",
      "type": "function"
    },
    {
      "inputs": [
        {
          "internalType": "uint256",
          "name": "tokenId",
          "type": "uint256"
        }
      ],
      "name": "removeFromMarketplace",
      "outputs": [],
      "stateMutability": "nonpayable",
      "type": "function"
    },
    {
      "inputs": [
        {
          "internalType": "address",
          "name": "from",
          "type": "address"
        },
        {
          "internalType": "address",
          "name": "to",
          "type": "address"
        },
        {
          "internalType": "uint256",
          "name": "tokenId",
          "type": "uint256"
        }
      ],
      "name": "safeTransferFrom",
      "outputs": [],
      "stateMutability": "nonpayable",
      "type": "function"
    },
    {
      "inputs": [
        {
          "internalType": "address",
          "name": "from",
          "type": "address"
        },
        {
          "internalType": "address",
          "name": "to",
          "type": "address"
        },
        {
          "internalType": "uint256",
          "name": "tokenId",
          "type": "uint256"
        },
        {
          "internalType": "bytes",
          "name": "_data",
          "type": "bytes"
        }
      ],
      "name": "safeTransferFrom",
      "outputs": [],
      "stateMutability": "nonpayable",
      "type": "function"
    },
    {
      "inputs": [
        {
          "internalType": "address",
          "name": "operator",
          "type": "address"
        },
        {
          "internalType": "bool",
          "name": "approved",
          "type": "bool"
        }
      ],
      "name": "setApprovalForAll",
      "outputs": [],
      "stateMutability": "nonpayable",
      "type": "function"
    },
    {
      "inputs": [
        {
          "internalType": "address",
          "name": "_address",
          "type": "address"
        }
      ],
      "name": "setTokenAddress",
      "outputs": [],
      "stateMutability": "nonpayable",
      "type": "function"
    },
    {
      "inputs": [
        {
          "internalType": "bytes4",
          "name": "interfaceId",
          "type": "bytes4"
        }
      ],
      "name": "supportsInterface",
      "outputs": [
        {
          "internalType": "bool",
          "name": "",
          "type": "bool"
        }
      ],
      "stateMutability": "view",
      "type": "function"
    },
    {
      "inputs": [],
      "name": "symbol",
      "outputs": [
        {
          "internalType": "string",
          "name": "",
          "type": "string"
        }
      ],
      "stateMutability": "view",
      "type": "function"
    },
    {
      "inputs": [
        {
          "internalType": "uint256",
          "name": "tokenId",
          "type": "uint256"
        }
      ],
      "name": "tokenURI",
      "outputs": [
        {
          "internalType": "string",
          "name": "",
          "type": "string"
        }
      ],
      "stateMutability": "view",
      "type": "function"
    },
    {
      "inputs": [
        {
          "internalType": "address",
          "name": "from",
          "type": "address"
        },
        {
          "internalType": "address",
          "name": "to",
          "type": "address"
        },
        {
          "internalType": "uint256",
          "name": "tokenId",
          "type": "uint256"
        }
      ],
      "name": "transferFrom",
      "outputs": [],
      "stateMutability": "nonpayable",
      "type": "function"
    }
  ],
  "bytecode": "0x6080604052600a80546001600160a01b031916737e2682b9d33c5fa42289bdb0b16c01fca18599861790553480156200003757600080fd5b50604051620033a7380380620033a78339810160408190526200005a91620001a2565b604080518082018252601081526f4d657461766572736520546f6b656e7360801b6020808301918252835180850190945260048452631351551560e21b908401528151919291620000ae91600091620000fc565b508051620000c4906001906020840190620000fc565b505060098054336001600160a01b031991821617909155600a80549091166001600160a01b039390931692909217909155506200020f565b8280546200010a90620001d2565b90600052602060002090601f0160209004810192826200012e576000855562000179565b82601f106200014957805160ff191683800117855562000179565b8280016001018555821562000179579182015b82811115620001795782518255916020019190600101906200015c565b50620001879291506200018b565b5090565b5b808211156200018757600081556001016200018c565b600060208284031215620001b4578081fd5b81516001600160a01b0381168114620001cb578182fd5b9392505050565b600181811c90821680620001e757607f821691505b602082108114156200020957634e487b7160e01b600052602260045260246000fd5b50919050565b613188806200021f6000396000f3fe608060405234801561001057600080fd5b50600436106101a95760003560e01c806361b45f13116100f9578063b88d4fde11610097578063dd3385b711610071578063dd3385b7146103db578063e210a72d146103e3578063e985e9c5146103f6578063ef5ca45f1461040957600080fd5b8063b88d4fde146103a2578063c0fc80a2146103b5578063c87b56dd146103c857600080fd5b806395d89b41116100d357806395d89b4114610361578063a1c11ca814610369578063a22cb4651461037c578063ab38cb561461038f57600080fd5b806361b45f13146103285780636352211e1461033b57806370a082311461034e57600080fd5b806323b872dd116101665780632fc23a21116101405780632fc23a21146102995780633d54eebb146102d457806342842e0e146102f557806356439ad01461030857600080fd5b806323b872dd1461025357806326a4e8d2146102665780632a45b2501461027957600080fd5b806301ffc9a7146101ae57806306fdde03146101d6578063081812fc146101eb578063095ea7b3146102165780630f08efe01461022b578063216ff99b14610240575b600080fd5b6101c16101bc366004612be5565b61041c565b60405190151581526020015b60405180910390f35b6101de61046e565b6040516101cd9190612efd565b6101fe6101f9366004612c63565b610500565b6040516001600160a01b0390911681526020016101cd565b610229610224366004612ba0565b61058d565b005b6102336106a3565b6040516101cd9190612e41565b61022961024e366004612c93565b61085a565b610229610261366004612ab6565b610bdc565b610229610274366004612a6a565b610c0d565b61028c610287366004612c63565b610c59565b6040516101cd9190613004565b6102ac6102a7366004612cb5565b610ce4565b604080519485526001600160a01b0390931660208501529183015260608201526080016101cd565b6102e76102e2366004612c1d565b610d33565b6040519081526020016101cd565b610229610303366004612ab6565b610d64565b61031b610316366004612c63565b610d7f565b6040516101cd9190612e90565b610229610336366004612d01565b610e1c565b6101fe610349366004612c63565b611089565b6102e761035c366004612a6a565b611100565b6101de611187565b610229610377366004612cb5565b611196565b61022961038a366004612b6a565b611398565b61022961039d366004612c63565b6113a7565b6102296103b0366004612af1565b6114b7565b6102296103c3366004612c93565b6114ef565b6101de6103d6366004612c63565b611759565b6102336118d0565b6102296103f1366004612cd6565b611ac8565b6101c1610404366004612a84565b611d33565b610229610417366004612c63565b611d61565b60006001600160e01b031982166380ac58cd60e01b148061044d57506001600160e01b03198216635b5e139f60e01b145b8061046857506301ffc9a760e01b6001600160e01b03198316145b92915050565b60606000805461047d90613082565b80601f01602080910402602001604051908101604052809291908181526020018280546104a990613082565b80156104f65780601f106104cb576101008083540402835291602001916104f6565b820191906000526020600020905b8154815290600101906020018083116104d957829003601f168201915b5050505050905090565b600061050b82611f89565b6105715760405162461bcd60e51b815260206004820152602c60248201527f4552433732313a20617070726f76656420717565727920666f72206e6f6e657860448201526b34b9ba32b73a103a37b5b2b760a11b60648201526084015b60405180910390fd5b506000908152600460205260409020546001600160a01b031690565b600061059882611089565b9050806001600160a01b0316836001600160a01b031614156106065760405162461bcd60e51b815260206004820152602160248201527f4552433732313a20617070726f76616c20746f2063757272656e74206f776e656044820152603960f91b6064820152608401610568565b336001600160a01b038216148061062257506106228133611d33565b6106945760405162461bcd60e51b815260206004820152603860248201527f4552433732313a20617070726f76652063616c6c6572206973206e6f74206f7760448201527f6e6572206e6f7220617070726f76656420666f7220616c6c00000000000000006064820152608401610568565b61069e8383611fa6565b505050565b606060006106b060075490565b905060006106bd60085490565b6007546106ca919061303f565b90506000808267ffffffffffffffff8111156106f657634e487b7160e01b600052604160045260246000fd5b60405190808252806020026020018201604052801561072f57816020015b61071c612888565b8152602001906001900390816107145790505b50905060005b848110156108515730600b600061074d846001613013565b81526020810191909152604001600020600201546001600160a01b0316141561083f57600061077d826001613013565b6000818152600b60209081526040918290208251610100810184528154815260018201546001600160a01b039081169382019390935260028201548316938101939093526003810154606084015260048101546080840152600581015460a0840152600681015491821660c0840152600160a01b90910460ff16151560e083015285519293509185908790811061082457634e487b7160e01b600052603260045260246000fd5b602090810291909101015261083a600186613013565b945050505b80610849816130bd565b915050610735565b50949350505050565b61086382611f89565b61087f5760405162461bcd60e51b815260040161056890612fdb565b6000828152600b60205260409020600101546001600160a01b031633146108b85760405162461bcd60e51b815260040161056890612f62565b6000805b6000848152600c6020526040902054811015610953576000848152600c6020526040902080546001600160a01b03851691908390811061090c57634e487b7160e01b600052603260045260246000fd5b60009182526020909120600160049092020101546001600160a01b031614156109415761093a816001613013565b9150610953565b8061094b816130bd565b9150506108bc565b506000811161099b5760405162461bcd60e51b8152602060048201526014602482015273109d5e595c881a5cc81b9bdd0818dbdc9c9958dd60621b6044820152606401610568565b60005b6000848152600c6020526040902054811015610b67576000848152600c6020526040902080546001600160a01b0385169190839081106109ee57634e487b7160e01b600052603260045260246000fd5b60009182526020909120600160049092020101546001600160a01b03161415610b5557600a546009546000868152600c6020526040902080546001600160a01b03938416936323b872dd93889391169186908110610a5c57634e487b7160e01b600052603260045260246000fd5b9060005260206000209060040201600201546040518463ffffffff1660e01b8152600401610aab939291906001600160a01b039384168152919092166020820152604081019190915260600190565b602060405180830381600087803b158015610ac557600080fd5b505af1158015610ad9573d6000803e3d6000fd5b505050506040513d601f19601f82011682018060405250810190610afd9190612bc9565b506000848152600c602052604090208054610b5591309184908110610b3257634e487b7160e01b600052603260045260246000fd5b60009182526020909120600160049092020101546001600160a01b031686612014565b80610b5f816130bd565b91505061099e565b506000838152600b602090815260408083208381556001810180546001600160a01b0319908116909155600282018054909116905560038101849055600481018490556005810184905560060180546001600160a81b0319169055600c9091528120610bd2916128ea565b61069e60086121b0565b610be63382612207565b610c025760405162461bcd60e51b815260040161056890612f8a565b61069e838383612014565b6009546001600160a01b03163314610c375760405162461bcd60e51b815260040161056890612f62565b600a80546001600160a01b0319166001600160a01b0392909216919091179055565b610c61612888565b506000908152600b60209081526040918290208251610100810184528154815260018201546001600160a01b039081169382019390935260028201548316938101939093526003810154606084015260048101546080840152600581015460a08401526006015490811660c0830152600160a01b900460ff16151560e082015290565b600c6020528160005260406000208181548110610d0057600080fd5b600091825260209091206004909102018054600182015460028301546003909301549194506001600160a01b0316925084565b6000610d43600780546001019055565b6000610d4e60075490565b9050610d5a33826122c9565b61046881846123fc565b61069e838383604051806020016040528060008152506114b7565b6060600c6000838152602001908152602001600020805480602002602001604051908101604052809291908181526020016000905b82821015610e115760008481526020908190206040805160808101825260048602909201805483526001808201546001600160a01b0316848601526002820154928401929092526003015460608301529083529092019101610db4565b505050509050919050565b610e2585611089565b6001600160a01b0316336001600160a01b031614610e855760405162461bcd60e51b815260206004820152601a60248201527f546f6b656e206f776e657220646f6573206e6f74206d617463680000000000006044820152606401610568565b60008411610ed55760405162461bcd60e51b815260206004820152601c60248201527f5072696365206d757374206265206174206c65617374203120776569000000006044820152606401610568565b604051806101000160405280868152602001336001600160a01b03168152602001306001600160a01b03168152602001858152602001848152602001838152602001826001600160a01b0316815260200160001515815250600b60008781526020019081526020016000206000820151816000015560208201518160010160006101000a8154816001600160a01b0302191690836001600160a01b0316021790555060408201518160020160006101000a8154816001600160a01b0302191690836001600160a01b03160217905550606082015181600301556080820151816004015560a0820151816005015560c08201518160060160006101000a8154816001600160a01b0302191690836001600160a01b0316021790555060e08201518160060160146101000a81548160ff02191690831515021790555090505061101d333087612014565b61102b600880546001019055565b604080513381523060208201529081018590526060810184905260808101839052600060a082015285907f3efd34bd330ac27a5bb2faf1b8808c68c369c2736c5e49e11f1bfce8001c5e4c9060c00160405180910390a25050505050565b6000818152600260205260408120546001600160a01b0316806104685760405162461bcd60e51b815260206004820152602960248201527f4552433732313a206f776e657220717565727920666f72206e6f6e657869737460448201526832b73a103a37b5b2b760b91b6064820152608401610568565b60006001600160a01b03821661116b5760405162461bcd60e51b815260206004820152602a60248201527f4552433732313a2062616c616e636520717565727920666f7220746865207a65604482015269726f206164647265737360b01b6064820152608401610568565b506001600160a01b031660009081526003602052604090205490565b60606001805461047d90613082565b6000828152600b6020526040902060060154600160a01b900460ff16156111ff5760405162461bcd60e51b815260206004820152601960248201527f4e6f74206c697374656420746f206d61726b6574706c616365000000000000006044820152606401610568565b6000828152600b6020526040902060038101546001909101546001600160a01b0316828214611298576040805162461bcd60e51b81526020600482015260248101919091527f506c65617365207375626d6974207468652061736b696e67207072696365206960448201527f6e206f7264657220746f20636f6d706c657465207468652070757263686173656064820152608401610568565b6000848152600b602052604081208181556001810180546001600160a01b031990811690915560028201805490911690556003810182905560048101829055600581019190915560060180546001600160a81b03191690556112fa60086121b0565b611305303386612014565b600a546040516323b872dd60e01b81523360048201526001600160a01b03838116602483015260448201869052909116906323b872dd90606401602060405180830381600087803b15801561135957600080fd5b505af115801561136d573d6000803e3d6000fd5b505050506040513d601f19601f820116820180604052508101906113919190612bc9565b5050505050565b6113a3338383612487565b5050565b6113b081611f89565b6113cc5760405162461bcd60e51b815260040161056890612fdb565b6000818152600b60205260409020600101546001600160a01b031633146114355760405162461bcd60e51b815260206004820152601a60248201527f546f6b656e206f776e657220646f6573206e6f74206d617463680000000000006044820152606401610568565b611440303383612014565b6000818152600b602090815260408083208381556001810180546001600160a01b0319908116909155600282018054909116905560038101849055600481018490556005810184905560060180546001600160a81b0319169055600c90915281206114aa916128ea565b6114b460086121b0565b50565b6114c13383612207565b6114dd5760405162461bcd60e51b815260040161056890612f8a565b6114e984848484612556565b50505050565b6114f882611f89565b6115145760405162461bcd60e51b815260040161056890612fdb565b6000828152600b60205260409020600101546001600160a01b0316331461154d5760405162461bcd60e51b815260040161056890612f62565b6000828152600c6020908152604080832080548251818502810185019093528083529192909190849084015b828210156115d65760008481526020908190206040805160808101825260048602909201805483526001808201546001600160a01b0316848601526002820154928401929092526003015460608301529083529092019101611579565b5050505090506000805b6000858152600c6020526040902054811015611677576000858152600c6020526040902080546001600160a01b03861691908390811061163057634e487b7160e01b600052603260045260246000fd5b60009182526020909120600160049092020101546001600160a01b031614156116655761165e816001613013565b9150611677565b8061166f816130bd565b9150506115e0565b5080156114e9576000848152600c60205260408120611695916128ea565b60005b8251811015611391576116ac60018361303f565b8114611747576000858152600c6020526040902083518490839081106116e257634e487b7160e01b600052603260045260246000fd5b60209081029190910181015182546001808201855560009485529383902082516004909202019081559181015192820180546001600160a01b0319166001600160a01b0390941693909317909255604082015160028201556060909101516003909101555b80611751816130bd565b915050611698565b606061176482611f89565b6117ca5760405162461bcd60e51b815260206004820152603160248201527f45524337323155524953746f726167653a2055524920717565727920666f72206044820152703737b732bc34b9ba32b73a103a37b5b2b760791b6064820152608401610568565b600082815260066020526040812080546117e390613082565b80601f016020809104026020016040519081016040528092919081815260200182805461180f90613082565b801561185c5780601f106118315761010080835404028352916020019161185c565b820191906000526020600020905b81548152906001019060200180831161183f57829003601f168201915b50505050509050600061187a60408051602081019091526000815290565b905080516000141561188d575092915050565b8151156118bf5780826040516020016118a7929190612dd5565b60405160208183030381529060405292505050919050565b6118c884612589565b949350505050565b606060006118dd60075490565b905060008060005b838110156119405733600b60006118fd846001613013565b81526020810191909152604001600020600101546001600160a01b0316141561192e5761192b600184613013565b92505b80611938816130bd565b9150506118e5565b5060008267ffffffffffffffff81111561196a57634e487b7160e01b600052604160045260246000fd5b6040519080825280602002602001820160405280156119a357816020015b611990612888565b8152602001906001900390816119885790505b50905060005b848110156108515733600b60006119c1846001613013565b81526020810191909152604001600020600101546001600160a01b03161415611ab6576000600b816119f4846001613013565b815260208082019290925260409081016000208151610100810183528154815260018201546001600160a01b039081169482019490945260028201548416928101929092526003810154606083015260048101546080830152600581015460a0830152600681015492831660c0830152600160a01b90920460ff16151560e0820152845191925090849086908110611a9c57634e487b7160e01b600052603260045260246000fd5b6020908102919091010152611ab2600185613013565b9350505b80611ac0816130bd565b9150506119a9565b611ad183611f89565b611b0f5760405162461bcd60e51b815260206004820152600f60248201526e2737ba1032bc34b9ba103a37b5b2b760891b6044820152606401610568565b33611b1984611089565b6001600160a01b03161415611b695760405162461bcd60e51b8152602060048201526016602482015275165bdd4818d85b89dd08189d5e481e5bdd5c8813919560521b6044820152606401610568565b600a546040516370a0823160e01b815233600482015283916001600160a01b0316906370a082319060240160206040518083038186803b158015611bac57600080fd5b505afa158015611bc0573d6000803e3d6000fd5b505050506040513d601f19601f82011682018060405250810190611be49190612c7b565b1015611c265760405162461bcd60e51b8152602060048201526011602482015270496e656666696369656e742066756e647360781b6044820152606401610568565b6000805b6000858152600c6020526040902054811015611cad576000858152600c60205260409020805482908110611c6e57634e487b7160e01b600052603260045260246000fd5b60009182526020909120600490910201600101546001600160a01b0316331415611c9b5760019150611cad565b80611ca5816130bd565b915050611c2a565b50806114e957506000838152600c60209081526040808320815160808101835296875233878401908152918701958652606087019485528054600180820183559185529290932095516004909202909501908155935190840180546001600160a01b0319166001600160a01b039092169190911790559051600283015551600390910155565b6001600160a01b03918216600090815260056020908152604080832093909416825291909152205460ff1690565b611d6a81611f89565b611d865760405162461bcd60e51b815260040161056890612fdb565b6000818152600c6020908152604080832080548251818502810185019093528083529192909190849084015b82821015611e0f5760008481526020908190206040805160808101825260048602909201805483526001808201546001600160a01b0316848601526002820154928401929092526003015460608301529083529092019101611db2565b5050505090506000805b6000848152600c6020526040902054811015611ea7576000848152600c60205260409020805433919083908110611e6057634e487b7160e01b600052603260045260246000fd5b60009182526020909120600160049092020101546001600160a01b03161415611e9557611e8e816001613013565b9150611ea7565b80611e9f816130bd565b915050611e19565b50801561069e576000838152600c60205260408120611ec5916128ea565b60005b82518110156114e957611edc60018361303f565b8114611f77576000848152600c602052604090208351849083908110611f1257634e487b7160e01b600052603260045260246000fd5b60209081029190910181015182546001808201855560009485529383902082516004909202019081559181015192820180546001600160a01b0319166001600160a01b0390941693909317909255604082015160028201556060909101516003909101555b80611f81816130bd565b915050611ec8565b6000908152600260205260409020546001600160a01b0316151590565b600081815260046020526040902080546001600160a01b0319166001600160a01b0384169081179091558190611fdb82611089565b6001600160a01b03167f8c5be1e5ebec7d5bd14f71427d1e84f3dd0314c0f7b2291e5b200ac8c7c3b92560405160405180910390a45050565b826001600160a01b031661202782611089565b6001600160a01b03161461208b5760405162461bcd60e51b815260206004820152602560248201527f4552433732313a207472616e736665722066726f6d20696e636f72726563742060448201526437bbb732b960d91b6064820152608401610568565b6001600160a01b0382166120ed5760405162461bcd60e51b8152602060048201526024808201527f4552433732313a207472616e7366657220746f20746865207a65726f206164646044820152637265737360e01b6064820152608401610568565b6120f8600082611fa6565b6001600160a01b038316600090815260036020526040812080546001929061212190849061303f565b90915550506001600160a01b038216600090815260036020526040812080546001929061214f908490613013565b909155505060008181526002602052604080822080546001600160a01b0319166001600160a01b0386811691821790925591518493918716917fddf252ad1be2c89b69c2b068fc378daa952ba7f163c4a11628f55a4df523b3ef91a4505050565b8054806121ff5760405162461bcd60e51b815260206004820152601b60248201527f436f756e7465723a2064656372656d656e74206f766572666c6f7700000000006044820152606401610568565b600019019055565b600061221282611f89565b6122735760405162461bcd60e51b815260206004820152602c60248201527f4552433732313a206f70657261746f7220717565727920666f72206e6f6e657860448201526b34b9ba32b73a103a37b5b2b760a11b6064820152608401610568565b600061227e83611089565b9050806001600160a01b0316846001600160a01b031614806122b95750836001600160a01b03166122ae84610500565b6001600160a01b0316145b806118c857506118c88185611d33565b6001600160a01b03821661231f5760405162461bcd60e51b815260206004820181905260248201527f4552433732313a206d696e7420746f20746865207a65726f20616464726573736044820152606401610568565b61232881611f89565b156123755760405162461bcd60e51b815260206004820152601c60248201527f4552433732313a20746f6b656e20616c7265616479206d696e746564000000006044820152606401610568565b6001600160a01b038216600090815260036020526040812080546001929061239e908490613013565b909155505060008181526002602052604080822080546001600160a01b0319166001600160a01b03861690811790915590518392907fddf252ad1be2c89b69c2b068fc378daa952ba7f163c4a11628f55a4df523b3ef908290a45050565b61240582611f89565b6124685760405162461bcd60e51b815260206004820152602e60248201527f45524337323155524953746f726167653a2055524920736574206f66206e6f6e60448201526d32bc34b9ba32b73a103a37b5b2b760911b6064820152608401610568565b6000828152600660209081526040909120825161069e9284019061290b565b816001600160a01b0316836001600160a01b031614156124e95760405162461bcd60e51b815260206004820152601960248201527f4552433732313a20617070726f766520746f2063616c6c6572000000000000006044820152606401610568565b6001600160a01b03838116600081815260056020908152604080832094871680845294825291829020805460ff191686151590811790915591519182527f17307eab39ab6107e8899845ad3d59bd9653f200f220920489ca2b5937696c31910160405180910390a3505050565b612561848484612014565b61256d84848484612661565b6114e95760405162461bcd60e51b815260040161056890612f10565b606061259482611f89565b6125f85760405162461bcd60e51b815260206004820152602f60248201527f4552433732314d657461646174613a2055524920717565727920666f72206e6f60448201526e3732bc34b9ba32b73a103a37b5b2b760891b6064820152608401610568565b600061260f60408051602081019091526000815290565b9050600081511161262f576040518060200160405280600081525061265a565b806126398461276e565b60405160200161264a929190612dd5565b6040516020818303038152906040525b9392505050565b60006001600160a01b0384163b1561276357604051630a85bd0160e11b81526001600160a01b0385169063150b7a02906126a5903390899088908890600401612e04565b602060405180830381600087803b1580156126bf57600080fd5b505af19250505080156126ef575060408051601f3d908101601f191682019092526126ec91810190612c01565b60015b612749573d80801561271d576040519150601f19603f3d011682016040523d82523d6000602084013e612722565b606091505b5080516127415760405162461bcd60e51b815260040161056890612f10565b805181602001fd5b6001600160e01b031916630a85bd0160e11b1490506118c8565b506001949350505050565b6060816127925750506040805180820190915260018152600360fc1b602082015290565b8160005b81156127bc57806127a6816130bd565b91506127b59050600a8361302b565b9150612796565b60008167ffffffffffffffff8111156127e557634e487b7160e01b600052604160045260246000fd5b6040519080825280601f01601f19166020018201604052801561280f576020820181803683370190505b5090505b84156118c85761282460018361303f565b9150612831600a866130d8565b61283c906030613013565b60f81b81838151811061285f57634e487b7160e01b600052603260045260246000fd5b60200101906001600160f81b031916908160001a905350612881600a8661302b565b9450612813565b6040518061010001604052806000815260200160006001600160a01b0316815260200160006001600160a01b0316815260200160008152602001600081526020016000815260200160006001600160a01b031681526020016000151581525090565b50805460008255600402906000526020600020908101906114b4919061298f565b82805461291790613082565b90600052602060002090601f016020900481019282612939576000855561297f565b82601f1061295257805160ff191683800117855561297f565b8280016001018555821561297f579182015b8281111561297f578251825591602001919060010190612964565b5061298b9291506129c3565b5090565b5b8082111561298b5760008082556001820180546001600160a01b0319169055600282018190556003820155600401612990565b5b8082111561298b57600081556001016129c4565b600067ffffffffffffffff808411156129f3576129f3613118565b604051601f8501601f19908116603f01168101908282118183101715612a1b57612a1b613118565b81604052809350858152868686011115612a3457600080fd5b858560208301376000602087830101525050509392505050565b80356001600160a01b0381168114612a6557600080fd5b919050565b600060208284031215612a7b578081fd5b61265a82612a4e565b60008060408385031215612a96578081fd5b612a9f83612a4e565b9150612aad60208401612a4e565b90509250929050565b600080600060608486031215612aca578081fd5b612ad384612a4e565b9250612ae160208501612a4e565b9150604084013590509250925092565b60008060008060808587031215612b06578081fd5b612b0f85612a4e565b9350612b1d60208601612a4e565b925060408501359150606085013567ffffffffffffffff811115612b3f578182fd5b8501601f81018713612b4f578182fd5b612b5e878235602084016129d8565b91505092959194509250565b60008060408385031215612b7c578182fd5b612b8583612a4e565b91506020830135612b958161312e565b809150509250929050565b60008060408385031215612bb2578182fd5b612bbb83612a4e565b946020939093013593505050565b600060208284031215612bda578081fd5b815161265a8161312e565b600060208284031215612bf6578081fd5b813561265a8161313c565b600060208284031215612c12578081fd5b815161265a8161313c565b600060208284031215612c2e578081fd5b813567ffffffffffffffff811115612c44578182fd5b8201601f81018413612c54578182fd5b6118c8848235602084016129d8565b600060208284031215612c74578081fd5b5035919050565b600060208284031215612c8c578081fd5b5051919050565b60008060408385031215612ca5578182fd5b82359150612aad60208401612a4e565b60008060408385031215612cc7578081fd5b50508035926020909101359150565b600080600060608486031215612cea578081fd5b505081359360208301359350604090920135919050565b600080600080600060a08688031215612d18578283fd5b85359450602086013593506040860135925060608601359150612d3d60808701612a4e565b90509295509295909350565b60008151808452612d61816020860160208601613056565b601f01601f19169290920160200192915050565b80518252602081015160018060a01b038082166020850152806040840151166040850152606083015160608501526080830151608085015260a083015160a08501528060c08401511660c0850152505060e0810151151560e08301525050565b60008351612de7818460208801613056565b835190830190612dfb818360208801613056565b01949350505050565b6001600160a01b0385811682528416602082015260408101839052608060608201819052600090612e3790830184612d49565b9695505050505050565b6020808252825182820181905260009190848201906040850190845b81811015612e8457612e70838551612d75565b928401926101009290920191600101612e5d565b50909695505050505050565b602080825282518282018190526000919060409081850190868401855b82811015612ef057815180518552868101516001600160a01b03168786015285810151868601526060908101519085015260809093019290850190600101612ead565b5091979650505050505050565b60208152600061265a6020830184612d49565b60208082526032908201527f4552433732313a207472616e7366657220746f206e6f6e20455243373231526560408201527131b2b4bb32b91034b6b83632b6b2b73a32b960711b606082015260800190565b6020808252600e908201526d2737ba103832b936b4b9b9b4b7b760911b604082015260600190565b60208082526031908201527f4552433732313a207472616e736665722063616c6c6572206973206e6f74206f6040820152701ddb995c881b9bdc88185c1c1c9bdd9959607a1b606082015260800190565b6020808252600f908201526e2737b71032bc34b9ba103a37b5b2b760891b604082015260600190565b61010081016104688284612d75565b60008219821115613026576130266130ec565b500190565b60008261303a5761303a613102565b500490565b600082821015613051576130516130ec565b500390565b60005b83811015613071578181015183820152602001613059565b838111156114e95750506000910152565b600181811c9082168061309657607f821691505b602082108114156130b757634e487b7160e01b600052602260045260246000fd5b50919050565b60006000198214156130d1576130d16130ec565b5060010190565b6000826130e7576130e7613102565b500690565b634e487b7160e01b600052601160045260246000fd5b634e487b7160e01b600052601260045260246000fd5b634e487b7160e01b600052604160045260246000fd5b80151581146114b457600080fd5b6001600160e01b0319811681146114b457600080fdfea2646970667358221220d465ea4c65aeccf58640a5c19ade6cb5b66dbcbb144713ec23a9679b5ca4b30c64736f6c63430008040033",
  "linkReferences": {},
  "deployedLinkReferences": {}
}