{
  "_format": "hh-sol-artifact-1",
  "contractName": "Token",
  "sourceName": "contracts/Token.sol",
  "abi": [
    {
      "inputs": [],
      "stateMutability": "nonpayable",
      "type": "constructor"
    },
    {
      "anonymous": false,
      "inputs": [
        {
          "indexed": true,
          "internalType": "address",
          "name": "owner",
          "type": "address"
        },
        {
          "indexed": true,
          "internalType": "address",
          "name": "spender",
          "type": "address"
        },
        {
          "indexed": false,
          "internalType": "uint256",
          "name": "amount",
          "type": "uint256"
        }
      ],
      "name": "Approval",
      "type": "event"
    },
    {
      "anonymous": false,
      "inputs": [
        {
          "indexed": true,
          "internalType": "address",
          "name": "from",
          "type": "address"
        },
        {
          "indexed": true,
          "internalType": "address",
          "name": "to",
          "type": "address"
        },
        {
          "indexed": false,
          "internalType": "uint256",
          "name": "amount",
          "type": "uint256"
        }
      ],
      "name": "Transfer",
      "type": "event"
    },
    {
      "inputs": [
        {
          "internalType": "address",
          "name": "_newOwner",
          "type": "address"
        }
      ],
      "name": "ChangeOwner",
      "outputs": [],
      "stateMutability": "nonpayable",
      "type": "function"
    },
    {
      "inputs": [
        {
          "internalType": "uint256",
          "name": "_target",
          "type": "uint256"
        },
        {
          "internalType": "address",
          "name": "_newTarget",
          "type": "address"
        }
      ],
      "name": "ChangeTarget",
      "outputs": [],
      "stateMutability": "nonpayable",
      "type": "function"
    },
    {
      "inputs": [],
      "name": "ShowOwner",
      "outputs": [
        {
          "internalType": "address",
          "name": "",
          "type": "address"
        }
      ],
      "stateMutability": "view",
      "type": "function"
    },
    {
      "inputs": [
        {
          "internalType": "address",
          "name": "_account",
          "type": "address"
        }
      ],
      "name": "addToBlackList",
      "outputs": [],
      "stateMutability": "nonpayable",
      "type": "function"
    },
    {
      "inputs": [
        {
          "internalType": "address",
          "name": "_account",
          "type": "address"
        }
      ],
      "name": "addToTax",
      "outputs": [],
      "stateMutability": "nonpayable",
      "type": "function"
    },
    {
      "inputs": [
        {
          "internalType": "address",
          "name": "_owner",
          "type": "address"
        },
        {
          "internalType": "address",
          "name": "_spender",
          "type": "address"
        }
      ],
      "name": "allowance",
      "outputs": [
        {
          "internalType": "uint256",
          "name": "remaining",
          "type": "uint256"
        }
      ],
      "stateMutability": "view",
      "type": "function"
    },
    {
      "inputs": [
        {
          "internalType": "address",
          "name": "",
          "type": "address"
        },
        {
          "internalType": "address",
          "name": "",
          "type": "address"
        }
      ],
      "name": "allowed",
      "outputs": [
        {
          "internalType": "uint256",
          "name": "",
          "type": "uint256"
        }
      ],
      "stateMutability": "view",
      "type": "function"
    },
    {
      "inputs": [
        {
          "internalType": "address",
          "name": "_spender",
          "type": "address"
        },
        {
          "internalType": "uint256",
          "name": "_amount",
          "type": "uint256"
        }
      ],
      "name": "approve",
      "outputs": [
        {
          "internalType": "bool",
          "name": "success",
          "type": "bool"
        }
      ],
      "stateMutability": "nonpayable",
      "type": "function"
    },
    {
      "inputs": [
        {
          "internalType": "address",
          "name": "_owner",
          "type": "address"
        }
      ],
      "name": "balanceOf",
      "outputs": [
        {
          "internalType": "uint256",
          "name": "",
          "type": "uint256"
        }
      ],
      "stateMutability": "view",
      "type": "function"
    },
    {
      "inputs": [
        {
          "internalType": "address",
          "name": "",
          "type": "address"
        }
      ],
      "name": "balances",
      "outputs": [
        {
          "internalType": "uint256",
          "name": "",
          "type": "uint256"
        }
      ],
      "stateMutability": "view",
      "type": "function"
    },
    {
      "inputs": [],
      "name": "decimals",
      "outputs": [
        {
          "internalType": "uint256",
          "name": "",
          "type": "uint256"
        }
      ],
      "stateMutability": "view",
      "type": "function"
    },
    {
      "inputs": [
        {
          "internalType": "address",
          "name": "_account",
          "type": "address"
        }
      ],
      "name": "excludeFromTax",
      "outputs": [],
      "stateMutability": "nonpayable",
      "type": "function"
    },
    {
      "inputs": [
        {
          "internalType": "address",
          "name": "",
          "type": "address"
        }
      ],
      "name": "isBlacklisted",
      "outputs": [
        {
          "internalType": "bool",
          "name": "",
          "type": "bool"
        }
      ],
      "stateMutability": "view",
      "type": "function"
    },
    {
      "inputs": [],
      "name": "name",
      "outputs": [
        {
          "internalType": "string",
          "name": "",
          "type": "string"
        }
      ],
      "stateMutability": "view",
      "type": "function"
    },
    {
      "inputs": [
        {
          "internalType": "address",
          "name": "_account",
          "type": "address"
        }
      ],
      "name": "removeFromBlackList",
      "outputs": [],
      "stateMutability": "nonpayable",
      "type": "function"
    },
    {
      "inputs": [],
      "name": "symbol",
      "outputs": [
        {
          "internalType": "string",
          "name": "",
          "type": "string"
        }
      ],
      "stateMutability": "view",
      "type": "function"
    },
    {
      "inputs": [
        {
          "internalType": "address",
          "name": "",
          "type": "address"
        }
      ],
      "name": "taxExcluded",
      "outputs": [
        {
          "internalType": "bool",
          "name": "",
          "type": "bool"
        }
      ],
      "stateMutability": "view",
      "type": "function"
    },
    {
      "inputs": [],
      "name": "totalSupply",
      "outputs": [
        {
          "internalType": "uint256",
          "name": "",
          "type": "uint256"
        }
      ],
      "stateMutability": "view",
      "type": "function"
    },
    {
      "inputs": [
        {
          "internalType": "address",
          "name": "_to",
          "type": "address"
        },
        {
          "internalType": "uint256",
          "name": "_amount",
          "type": "uint256"
        }
      ],
      "name": "transfer",
      "outputs": [
        {
          "internalType": "bool",
          "name": "success",
          "type": "bool"
        }
      ],
      "stateMutability": "nonpayable",
      "type": "function"
    },
    {
      "inputs": [
        {
          "internalType": "address",
          "name": "_from",
          "type": "address"
        },
        {
          "internalType": "address",
          "name": "_to",
          "type": "address"
        },
        {
          "internalType": "uint256",
          "name": "_amount",
          "type": "uint256"
        }
      ],
      "name": "transferFrom",
      "outputs": [
        {
          "internalType": "bool",
          "name": "success",
          "type": "bool"
        }
      ],
      "stateMutability": "nonpayable",
      "type": "function"
    }
  ],
  "bytecode": "0x600080546001600160a01b031990811673eb46756a26f58837df192f378859aabf4ce206391790915560018054909116735932e31bc7231d61d939e63d02e17627ce77112c17905560c06040526009608081905268434845464f52414d4160b81b60a0908152620000749160029190620000f4565b506040805180820190915260048082526321a422a360e11b6020909201918252620000a291600391620000f4565b5060126004556b1027e72f1f12813088000000600555348015620000c557600080fd5b50600680546001600160a01b0319163390811790915560055460009182526008602052604090912055620001d7565b82805462000102906200019a565b90600052602060002090601f01602090048101928262000126576000855562000171565b82601f106200014157805160ff191683800117855562000171565b8280016001018555821562000171579182015b828111156200017157825182559160200191906001019062000154565b506200017f92915062000183565b5090565b5b808211156200017f576000815560010162000184565b600181811c90821680620001af57607f821691505b60208210811415620001d157634e487b7160e01b600052602260045260246000fd5b50919050565b610ccb80620001e76000396000f3fe608060405234801561001057600080fd5b506004361061012c5760003560e01c806358082a1c116100ad57806396ce267a1161007157806396ce267a146102a5578063a9059cbb146102c0578063dd62ed3e146102d3578063f28532921461030c578063fe575a871461031f57600080fd5b806358082a1c146102235780635c6581651461023657806360d1259e1461026157806370a082311461027457806395d89b411461029d57600080fd5b8063313ce567116100f4578063313ce567146101bc57806339b622d3146101c5578063417c73a7146101e85780634a49ac4c146101fd578063565b00de1461021057600080fd5b806306fdde0314610131578063095ea7b31461014f57806318160ddd1461017257806323b872dd1461018957806327e235e31461019c575b600080fd5b610139610342565b6040516101469190610b6b565b60405180910390f35b61016261015d366004610b20565b6103d0565b6040519015158152602001610146565b61017b60055481565b604051908152602001610146565b610162610197366004610ae5565b610449565b61017b6101aa366004610a92565b60086020526000908152604090205481565b61017b60045481565b6101626101d3366004610a92565b600a6020526000908152604090205460ff1681565b6101fb6101f6366004610a92565b610562565b005b6101fb61020b366004610a92565b6105b0565b6101fb61021e366004610b49565b6105fb565b6101fb610231366004610a92565b610673565b61017b610244366004610ab3565b600760209081526000928352604080842090915290825290205481565b6101fb61026f366004610a92565b6106be565b61017b610282366004610a92565b6001600160a01b031660009081526008602052604090205490565b61013961070c565b6006546040516001600160a01b039091168152602001610146565b6101626102ce366004610b20565b610719565b61017b6102e1366004610ab3565b6001600160a01b03918216600090815260076020908152604080832093909416825291909152205490565b6101fb61031a366004610a92565b61077e565b61016261032d366004610a92565b60096020526000908152604090205460ff1681565b6002805461034f90610c44565b80601f016020809104026020016040519081016040528092919081815260200182805461037b90610c44565b80156103c85780601f1061039d576101008083540402835291602001916103c8565b820191906000526020600020905b8154815290600101906020018083116103ab57829003601f168201915b505050505081565b60006001600160a01b0383166103e557600080fd5b3360008181526007602090815260408083206001600160a01b03881680855290835292819020869055518581529192917f8c5be1e5ebec7d5bd14f71427d1e84f3dd0314c0f7b2291e5b200ac8c7c3b925910160405180910390a350600192915050565b6001600160a01b0383166000908152600860205260408120548211156104a85760405162461bcd60e51b815260206004820152600f60248201526e62616c616e636520746f6f206c6f7760881b60448201526064015b60405180910390fd5b6001600160a01b03841660009081526007602090815260408083203384529091529020548211156105145760405162461bcd60e51b8152602060048201526016602482015275696e73756666696369656e7420616c6c6f77616e636560501b604482015260640161049f565b6001600160a01b038416600090815260076020908152604080832033845290915281208054849290610547908490610c2d565b9091555061055890508484846107ca565b5060019392505050565b6006546001600160a01b0316331461058c5760405162461bcd60e51b815260040161049f90610bbe565b6001600160a01b03166000908152600960205260409020805460ff19166001179055565b6006546001600160a01b031633146105da5760405162461bcd60e51b815260040161049f90610bbe565b6001600160a01b03166000908152600960205260409020805460ff19169055565b6006546001600160a01b031633146106255760405162461bcd60e51b815260040161049f90610bbe565b816001141561064a57600080546001600160a01b0319166001600160a01b0383161790555b816002141561066f57600180546001600160a01b0319166001600160a01b0383161790555b5050565b6006546001600160a01b0316331461069d5760405162461bcd60e51b815260040161049f90610bbe565b6001600160a01b03166000908152600a60205260409020805460ff19169055565b6006546001600160a01b031633146106e85760405162461bcd60e51b815260040161049f90610bbe565b6001600160a01b03166000908152600a60205260409020805460ff19166001179055565b6003805461034f90610c44565b3360009081526008602052604081205482111561076a5760405162461bcd60e51b815260206004820152600f60248201526e62616c616e636520746f6f206c6f7760881b604482015260640161049f565b6107753384846107ca565b50600192915050565b6006546001600160a01b031633146107a85760405162461bcd60e51b815260040161049f90610bbe565b600680546001600160a01b0319166001600160a01b0392909216919091179055565b6001600160a01b0382166108205760405162461bcd60e51b815260206004820152601960248201527f696e76616c696420726563656976696e67206164647265737300000000000000604482015260640161049f565b6001600160a01b03831660009081526009602052604090205460ff1615801561086257506001600160a01b03821660009081526009602052604090205460ff16155b6108ae5760405162461bcd60e51b815260206004820152601b60248201527f54686973206164647265737320697320626c61636b6c69737465640000000000604482015260640161049f565b6001600160a01b0383166000908152600a602052604090205460ff16151560011415610934576001600160a01b038316600090815260086020526040812080548392906108fc908490610c2d565b90915550506001600160a01b03821660009081526008602052604081208054839290610929908490610bf5565b90915550610a249050565b6000610941601983610c0d565b90506000610950603284610c0d565b6001600160a01b03861660009081526008602052604081208054929350859290919061097d908490610c2d565b9091555081905061098e8385610c2d565b6109989190610c2d565b6001600160a01b038516600090815260086020526040812080549091906109c0908490610bf5565b9091555050600080546001600160a01b0316815260086020526040812080548492906109ed908490610bf5565b90915550506001546001600160a01b031660009081526008602052604081208054839290610a1c908490610bf5565b909155505050505b816001600160a01b0316836001600160a01b03167fddf252ad1be2c89b69c2b068fc378daa952ba7f163c4a11628f55a4df523b3ef83604051610a6991815260200190565b60405180910390a3505050565b80356001600160a01b0381168114610a8d57600080fd5b919050565b600060208284031215610aa3578081fd5b610aac82610a76565b9392505050565b60008060408385031215610ac5578081fd5b610ace83610a76565b9150610adc60208401610a76565b90509250929050565b600080600060608486031215610af9578081fd5b610b0284610a76565b9250610b1060208501610a76565b9150604084013590509250925092565b60008060408385031215610b32578182fd5b610b3b83610a76565b946020939093013593505050565b60008060408385031215610b5b578182fd5b82359150610adc60208401610a76565b6000602080835283518082850152825b81811015610b9757858101830151858201604001528201610b7b565b81811115610ba85783604083870101525b50601f01601f1916929092016040019392505050565b6020808252601e908201527f596f752063616e206e6f742063616c6c20746869732066756e6374696f6e0000604082015260600190565b60008219821115610c0857610c08610c7f565b500190565b600082610c2857634e487b7160e01b81526012600452602481fd5b500490565b600082821015610c3f57610c3f610c7f565b500390565b600181811c90821680610c5857607f821691505b60208210811415610c7957634e487b7160e01b600052602260045260246000fd5b50919050565b634e487b7160e01b600052601160045260246000fdfea2646970667358221220e8f275b88320f51b60df919cd49d8a2a859b1081d4406ec9c573689b15cbbebf64736f6c63430008040033",
  "linkReferences": {},
  "deployedLinkReferences": {}
}