{
  "_format": "hh-sol-artifact-1",
  "contractName": "NFTMarket",
  "sourceName": "contracts/NFTMarket.sol",
  "abi": [
    {
      "inputs": [],
      "stateMutability": "nonpayable",
      "type": "constructor"
    },
    {
      "anonymous": false,
      "inputs": [
        {
          "indexed": true,
          "internalType": "uint256",
          "name": "itemId",
          "type": "uint256"
        },
        {
          "indexed": true,
          "internalType": "address",
          "name": "nftContract",
          "type": "address"
        },
        {
          "indexed": true,
          "internalType": "uint256",
          "name": "tokenId",
          "type": "uint256"
        },
        {
          "indexed": false,
          "internalType": "address",
          "name": "seller",
          "type": "address"
        },
        {
          "indexed": false,
          "internalType": "address",
          "name": "owner",
          "type": "address"
        },
        {
          "indexed": false,
          "internalType": "uint256",
          "name": "price",
          "type": "uint256"
        },
        {
          "indexed": false,
          "internalType": "bool",
          "name": "sold",
          "type": "bool"
        }
      ],
      "name": "MarketItemCreated",
      "type": "event"
    },
    {
      "inputs": [
        {
          "internalType": "address",
          "name": "nftContract",
          "type": "address"
        },
        {
          "internalType": "uint256",
          "name": "tokenId",
          "type": "uint256"
        },
        {
          "internalType": "uint256",
          "name": "price",
          "type": "uint256"
        },
        {
          "internalType": "address",
          "name": "paymentTokenAddress",
          "type": "address"
        }
      ],
      "name": "createMarketItem",
      "outputs": [],
      "stateMutability": "nonpayable",
      "type": "function"
    },
    {
      "inputs": [
        {
          "internalType": "address",
          "name": "nftContract",
          "type": "address"
        },
        {
          "internalType": "uint256",
          "name": "itemId",
          "type": "uint256"
        },
        {
          "internalType": "address",
          "name": "paymentTokenAddress",
          "type": "address"
        }
      ],
      "name": "createMarketSale",
      "outputs": [],
      "stateMutability": "nonpayable",
      "type": "function"
    },
    {
      "inputs": [],
      "name": "fetchItemsCreated",
      "outputs": [
        {
          "components": [
            {
              "internalType": "uint256",
              "name": "itemId",
              "type": "uint256"
            },
            {
              "internalType": "address",
              "name": "nftContract",
              "type": "address"
            },
            {
              "internalType": "uint256",
              "name": "tokenId",
              "type": "uint256"
            },
            {
              "internalType": "address",
              "name": "seller",
              "type": "address"
            },
            {
              "internalType": "address",
              "name": "owner",
              "type": "address"
            },
            {
              "internalType": "uint256",
              "name": "price",
              "type": "uint256"
            },
            {
              "internalType": "bool",
              "name": "sold",
              "type": "bool"
            }
          ],
          "internalType": "struct NFTMarket.MarketItem[]",
          "name": "",
          "type": "tuple[]"
        }
      ],
      "stateMutability": "view",
      "type": "function"
    },
    {
      "inputs": [],
      "name": "fetchMarketItems",
      "outputs": [
        {
          "components": [
            {
              "internalType": "uint256",
              "name": "itemId",
              "type": "uint256"
            },
            {
              "internalType": "address",
              "name": "nftContract",
              "type": "address"
            },
            {
              "internalType": "uint256",
              "name": "tokenId",
              "type": "uint256"
            },
            {
              "internalType": "address",
              "name": "seller",
              "type": "address"
            },
            {
              "internalType": "address",
              "name": "owner",
              "type": "address"
            },
            {
              "internalType": "uint256",
              "name": "price",
              "type": "uint256"
            },
            {
              "internalType": "bool",
              "name": "sold",
              "type": "bool"
            }
          ],
          "internalType": "struct NFTMarket.MarketItem[]",
          "name": "",
          "type": "tuple[]"
        }
      ],
      "stateMutability": "view",
      "type": "function"
    },
    {
      "inputs": [],
      "name": "fetchMyNFTs",
      "outputs": [
        {
          "components": [
            {
              "internalType": "uint256",
              "name": "itemId",
              "type": "uint256"
            },
            {
              "internalType": "address",
              "name": "nftContract",
              "type": "address"
            },
            {
              "internalType": "uint256",
              "name": "tokenId",
              "type": "uint256"
            },
            {
              "internalType": "address",
              "name": "seller",
              "type": "address"
            },
            {
              "internalType": "address",
              "name": "owner",
              "type": "address"
            },
            {
              "internalType": "uint256",
              "name": "price",
              "type": "uint256"
            },
            {
              "internalType": "bool",
              "name": "sold",
              "type": "bool"
            }
          ],
          "internalType": "struct NFTMarket.MarketItem[]",
          "name": "",
          "type": "tuple[]"
        }
      ],
      "stateMutability": "view",
      "type": "function"
    },
    {
      "inputs": [],
      "name": "getListingPrice",
      "outputs": [
        {
          "internalType": "uint256",
          "name": "",
          "type": "uint256"
        }
      ],
      "stateMutability": "view",
      "type": "function"
    }
  ],
  "bytecode": "0x6080604052670de0b6b3a764000060045534801561001c57600080fd5b506001600055600380546001600160a01b03191633179055610dd3806100436000396000f3fe608060405234801561001057600080fd5b50600436106100625760003560e01c80630f08efe01461006757806312e8558514610085578063202e374014610096578063ad4b6c521461009e578063b37654a7146100b3578063f064c32e146100c6575b600080fd5b61006f6100ce565b60405161007c9190610ca9565b60405180910390f35b60045460405190815260200161007c565b61006f610276565b6100b16100ac366004610bde565b61045c565b005b6100b16100c1366004610c19565b610682565b61006f6109a0565b606060006100db60015490565b905060006100e860025490565b6001546100f59190610d55565b90506000808267ffffffffffffffff81111561012157634e487b7160e01b600052604160045260246000fd5b60405190808252806020026020018201604052801561015a57816020015b610147610b86565b81526020019060019003908161013f5790505b50905060005b8481101561026d576000600581610178846001610d3d565b81526020810191909152604001600020600401546001600160a01b0316141561025b5760006101a8826001610d3d565b600081815260056020818152604092839020835160e0810185528154815260018201546001600160a01b0390811693820193909352600282015494810194909452600381015482166060850152600481015490911660808401529081015460a0830152600681015460ff16151560c083015285519293509185908790811061024057634e487b7160e01b600052603260045260246000fd5b6020908102919091010152610256600186610d3d565b945050505b8061026581610d6c565b915050610160565b50949350505050565b6060600061028360015490565b905060008060005b838110156102e65733600560006102a3846001610d3d565b81526020810191909152604001600020600401546001600160a01b031614156102d4576102d1600184610d3d565b92505b806102de81610d6c565b91505061028b565b5060008267ffffffffffffffff81111561031057634e487b7160e01b600052604160045260246000fd5b60405190808252806020026020018201604052801561034957816020015b610336610b86565b81526020019060019003908161032e5790505b50905060005b8481101561026d573360056000610367846001610d3d565b81526020810191909152604001600020600401546001600160a01b0316141561044a576000610397826001610d3d565b600081815260056020818152604092839020835160e0810185528154815260018201546001600160a01b0390811693820193909352600282015494810194909452600381015482166060850152600481015490911660808401529081015460a0830152600681015460ff16151560c083015285519293509185908790811061042f57634e487b7160e01b600052603260045260246000fd5b6020908102919091010152610445600186610d3d565b945050505b8061045481610d6c565b91505061034f565b600260005414156104b45760405162461bcd60e51b815260206004820152601f60248201527f5265656e7472616e637947756172643a207265656e7472616e742063616c6c0060448201526064015b60405180910390fd5b6002600081815583815260056020819052604091829020908101549281015460039091015491516323b872dd60e01b815290916001600160a01b0390811691908516906323b872dd9061050f90339085908890600401610c85565b602060405180830381600087803b15801561052957600080fd5b505af115801561053d573d6000803e3d6000fd5b505050506040513d601f19601f820116820180604052508101906105619190610c5e565b6105d5576040805162461bcd60e51b81526020600482015260248101919091527f506c65617365207375626d6974207468652061736b696e67207072696365206960448201527f6e206f7264657220746f20636f6d706c6574652074686520707572636861736560648201526084016104ab565b6040516323b872dd60e01b81526001600160a01b038716906323b872dd9061060590309033908790600401610c85565b600060405180830381600087803b15801561061f57600080fd5b505af1158015610633573d6000803e3d6000fd5b50505060008681526005602052604090206004810180546001600160a01b03191633179055600601805460ff1916600117905550610675600280546001019055565b5050600160005550505050565b600260005414156106d55760405162461bcd60e51b815260206004820152601f60248201527f5265656e7472616e637947756172643a207265656e7472616e742063616c6c0060448201526064016104ab565b6002600055816107275760405162461bcd60e51b815260206004820152601c60248201527f5072696365206d757374206265206174206c656173742031207765690000000060448201526064016104ab565b600354600480546040516323b872dd60e01b81526001600160a01b03858116946323b872dd9461075e943394939092169201610c85565b602060405180830381600087803b15801561077857600080fd5b505af115801561078c573d6000803e3d6000fd5b505050506040513d601f19601f820116820180604052508101906107b09190610c5e565b61080b5760405162461bcd60e51b815260206004820152602660248201527f5061796d656e74206d75737420626520657175616c20746f206c697374696e6760448201526520707269636560d01b60648201526084016104ab565b610819600180546001019055565b600061082460015490565b6040805160e0810182528281526001600160a01b0388811660208084018281528486018b8152336060870181815260006080890181815260a08a018f815260c08b018381528d8452600598899052928c90209a518b55955160018b0180546001600160a01b0319908116928c16929092179055945160028b0155915160038a0180548616918a1691909117905590516004808a018054909516919098161790925591519286019290925590516006909401805460ff19169415159490941790935592516323b872dd60e01b815293945091926323b872dd9261090b929130918a9101610c85565b600060405180830381600087803b15801561092557600080fd5b505af1158015610939573d6000803e3d6000fd5b505060408051338152600060208201819052818301889052606082015290518793506001600160a01b038916925084917f045dfa01dcba2b36aba1d3dc4a874f4b0c5d2fbeb8d2c4b34a7d88c8d8f929d1919081900360800190a450506001600055505050565b606060006109ad60015490565b905060008060005b83811015610a105733600560006109cd846001610d3d565b81526020810191909152604001600020600301546001600160a01b031614156109fe576109fb600184610d3d565b92505b80610a0881610d6c565b9150506109b5565b5060008267ffffffffffffffff811115610a3a57634e487b7160e01b600052604160045260246000fd5b604051908082528060200260200182016040528015610a7357816020015b610a60610b86565b815260200190600190039081610a585790505b50905060005b8481101561026d573360056000610a91846001610d3d565b81526020810191909152604001600020600301546001600160a01b03161415610b74576000610ac1826001610d3d565b600081815260056020818152604092839020835160e0810185528154815260018201546001600160a01b0390811693820193909352600282015494810194909452600381015482166060850152600481015490911660808401529081015460a0830152600681015460ff16151560c0830152855192935091859087908110610b5957634e487b7160e01b600052603260045260246000fd5b6020908102919091010152610b6f600186610d3d565b945050505b80610b7e81610d6c565b915050610a79565b6040805160e081018252600080825260208201819052918101829052606081018290526080810182905260a0810182905260c081019190915290565b80356001600160a01b0381168114610bd957600080fd5b919050565b600080600060608486031215610bf2578283fd5b610bfb84610bc2565b925060208401359150610c1060408501610bc2565b90509250925092565b60008060008060808587031215610c2e578081fd5b610c3785610bc2565b93506020850135925060408501359150610c5360608601610bc2565b905092959194509250565b600060208284031215610c6f578081fd5b81518015158114610c7e578182fd5b9392505050565b6001600160a01b039384168152919092166020820152604081019190915260600190565b602080825282518282018190526000919060409081850190868401855b82811015610d3057815180518552868101516001600160a01b039081168887015286820151878701526060808301518216908701526080808301519091169086015260a0808201519086015260c09081015115159085015260e09093019290850190600101610cc6565b5091979650505050505050565b60008219821115610d5057610d50610d87565b500190565b600082821015610d6757610d67610d87565b500390565b6000600019821415610d8057610d80610d87565b5060010190565b634e487b7160e01b600052601160045260246000fdfea26469706673582212205976c1499fc218012d864d84d087ad986b3130f5257587cf61429d40973b5f4d64736f6c63430008040033",
  "linkReferences": {},
  "deployedLinkReferences": {}
}